{
  "contractName": "CarLoan",
  "abi": [
    {
      "inputs": [],
      "payable": false,
      "stateMutability": "nonpayable",
      "type": "constructor"
    },
    {
      "anonymous": false,
      "inputs": [
        {
          "indexed": true,
          "name": "_from",
          "type": "address"
        },
        {
          "indexed": true,
          "name": "_to",
          "type": "address"
        },
        {
          "indexed": true,
          "name": "_tokenId",
          "type": "uint256"
        }
      ],
      "name": "Transfer",
      "type": "event"
    },
    {
      "anonymous": false,
      "inputs": [
        {
          "indexed": true,
          "name": "_owner",
          "type": "address"
        },
        {
          "indexed": true,
          "name": "_approved",
          "type": "address"
        },
        {
          "indexed": true,
          "name": "_tokenId",
          "type": "uint256"
        }
      ],
      "name": "Approval",
      "type": "event"
    },
    {
      "anonymous": false,
      "inputs": [
        {
          "indexed": true,
          "name": "_owner",
          "type": "address"
        },
        {
          "indexed": true,
          "name": "_operator",
          "type": "address"
        },
        {
          "indexed": false,
          "name": "_approved",
          "type": "bool"
        }
      ],
      "name": "ApprovalForAll",
      "type": "event"
    },
    {
      "constant": false,
      "inputs": [
        {
          "name": "_from",
          "type": "address"
        },
        {
          "name": "_to",
          "type": "address"
        },
        {
          "name": "_tokenId",
          "type": "uint256"
        }
      ],
      "name": "safeTransferFrom",
      "outputs": [],
      "payable": false,
      "stateMutability": "nonpayable",
      "type": "function"
    },
    {
      "constant": false,
      "inputs": [
        {
          "name": "_from",
          "type": "address"
        },
        {
          "name": "_to",
          "type": "address"
        },
        {
          "name": "_tokenId",
          "type": "uint256"
        },
        {
          "name": "_data",
          "type": "bytes"
        }
      ],
      "name": "safeTransferFrom",
      "outputs": [],
      "payable": false,
      "stateMutability": "nonpayable",
      "type": "function"
    },
    {
      "constant": false,
      "inputs": [
        {
          "name": "_approved",
          "type": "address"
        },
        {
          "name": "_tokenId",
          "type": "uint256"
        }
      ],
      "name": "approve",
      "outputs": [],
      "payable": false,
      "stateMutability": "nonpayable",
      "type": "function"
    },
    {
      "constant": false,
      "inputs": [
        {
          "name": "_operator",
          "type": "address"
        },
        {
          "name": "_approved",
          "type": "bool"
        }
      ],
      "name": "setApprovalForAll",
      "outputs": [],
      "payable": false,
      "stateMutability": "nonpayable",
      "type": "function"
    },
    {
      "constant": true,
      "inputs": [
        {
          "name": "_owner",
          "type": "address"
        }
      ],
      "name": "balanceOf",
      "outputs": [
        {
          "name": "",
          "type": "uint256"
        }
      ],
      "payable": false,
      "stateMutability": "view",
      "type": "function"
    },
    {
      "constant": false,
      "inputs": [
        {
          "name": "_from",
          "type": "address"
        },
        {
          "name": "_to",
          "type": "address"
        },
        {
          "name": "_tokenId",
          "type": "uint256"
        }
      ],
      "name": "transferFrom",
      "outputs": [],
      "payable": false,
      "stateMutability": "nonpayable",
      "type": "function"
    },
    {
      "constant": true,
      "inputs": [
        {
          "name": "_tokenId",
          "type": "uint256"
        }
      ],
      "name": "ownerOf",
      "outputs": [
        {
          "name": "",
          "type": "address"
        }
      ],
      "payable": false,
      "stateMutability": "view",
      "type": "function"
    },
    {
      "constant": true,
      "inputs": [
        {
          "name": "_tokenId",
          "type": "uint256"
        }
      ],
      "name": "getApproved",
      "outputs": [
        {
          "name": "",
          "type": "address"
        }
      ],
      "payable": false,
      "stateMutability": "view",
      "type": "function"
    },
    {
      "constant": true,
      "inputs": [
        {
          "name": "_owner",
          "type": "address"
        },
        {
          "name": "_operator",
          "type": "address"
        }
      ],
      "name": "isApprovedForAll",
      "outputs": [
        {
          "name": "",
          "type": "bool"
        }
      ],
      "payable": false,
      "stateMutability": "view",
      "type": "function"
    },
    {
      "constant": true,
      "inputs": [],
      "name": "name",
      "outputs": [
        {
          "name": "",
          "type": "string"
        }
      ],
      "payable": false,
      "stateMutability": "pure",
      "type": "function"
    },
    {
      "constant": true,
      "inputs": [],
      "name": "symbol",
      "outputs": [
        {
          "name": "",
          "type": "string"
        }
      ],
      "payable": false,
      "stateMutability": "pure",
      "type": "function"
    },
    {
      "constant": false,
      "inputs": [
        {
          "name": "_to",
          "type": "address"
        },
        {
          "name": "_tokenId",
          "type": "uint256"
        },
        {
          "name": "_infoUrl",
          "type": "string"
        }
      ],
      "name": "mint",
      "outputs": [],
      "payable": false,
      "stateMutability": "nonpayable",
      "type": "function"
    },
    {
      "constant": true,
      "inputs": [
        {
          "name": "_tokenId",
          "type": "uint256"
        }
      ],
      "name": "tokenMetadata",
      "outputs": [
        {
          "name": "infoUrl",
          "type": "string"
        }
      ],
      "payable": false,
      "stateMutability": "view",
      "type": "function"
    }
  ],
  "bytecode": "0x608060405234801561001057600080fd5b5061121b806100206000396000f3fe6080604052600436106100c45763ffffffff7c010000000000000000000000000000000000000000000000000000000060003504166306fdde0381146100c9578063081812fc14610153578063095ea7b31461019957806323b872dd146101d457806342842e0e146102175780636352211e1461025a5780636914db601461028457806370a08231146102ae57806395d89b41146102f3578063a22cb46514610308578063b88d4fde14610343578063d3fc9864146103e0578063e985e9c514610472575b600080fd5b3480156100d557600080fd5b506100de6104c1565b6040805160208082528351818301528351919283929083019185019080838360005b83811015610118578181015183820152602001610100565b50505050905090810190601f1680156101455780820380516001836020036101000a031916815260200191505b509250505060405180910390f35b34801561015f57600080fd5b5061017d6004803603602081101561017657600080fd5b50356104f9565b60408051600160a060020a039092168252519081900360200190f35b3480156101a557600080fd5b506101d2600480360360408110156101bc57600080fd5b50600160a060020a038135169060200135610514565b005b3480156101e057600080fd5b506101d2600480360360608110156101f757600080fd5b50600160a060020a038135811691602081013590911690604001356105fc565b34801561022357600080fd5b506101d26004803603606081101561023a57600080fd5b50600160a060020a0381358116916020810135909116906040013561087e565b34801561026657600080fd5b5061017d6004803603602081101561027d57600080fd5b5035610a1b565b34801561029057600080fd5b506100de600480360360208110156102a757600080fd5b5035610a90565b3480156102ba57600080fd5b506102e1600480360360208110156102d157600080fd5b5035600160a060020a0316610b38565b60408051918252519081900360200190f35b3480156102ff57600080fd5b506100de610bb6565b34801561031457600080fd5b506101d26004803603604081101561032b57600080fd5b50600160a060020a0381351690602001351515610bed565b34801561034f57600080fd5b506101d26004803603608081101561036657600080fd5b600160a060020a038235811692602081013590911691604082013591908101906080810160608201356401000000008111156103a157600080fd5b8201836020820111156103b357600080fd5b803590602001918460018302840111640100000000831117156103d557600080fd5b509092509050610c5b565b3480156103ec57600080fd5b506101d26004803603606081101561040357600080fd5b600160a060020a038235169160208101359181019060608101604082013564010000000081111561043357600080fd5b82018360208201111561044557600080fd5b8035906020019184600183028401116401000000008311171561046757600080fd5b509092509050610e29565b34801561047e57600080fd5b506104ad6004803603604081101561049557600080fd5b50600160a060020a0381358116916020013516610e6a565b604080519115158252519081900360200190f35b60408051808201909152601581527f31326d6f6e74687328544d2920436172204c6f616e000000000000000000000060208201525b90565b600090815260026020526040902054600160a060020a031690565b600061051f82610a1b565b905033600160a060020a038216148061053d575061053d8133610e6a565b1515610593576040805160e560020a62461bcd02815260206004820152601560248201527f4552433732315f494e56414c49445f53454e4445520000000000000000000000604482015290519081900360640190fd5b600082815260026020526040808220805473ffffffffffffffffffffffffffffffffffffffff1916600160a060020a0387811691821790925591518593918516917f8c5be1e5ebec7d5bd14f71427d1e84f3dd0314c0f7b2291e5b200ac8c7c3b92591a4505050565b600160a060020a038216151561065c576040805160e560020a62461bcd02815260206004820152601660248201527f4552433732315f5a45524f5f544f5f4144445245535300000000000000000000604482015290519081900360640190fd5b600061066782610a1b565b9050600160a060020a03848116908216146106cc576040805160e560020a62461bcd02815260206004820152601560248201527f4552433732315f4f574e45525f4d49534d415443480000000000000000000000604482015290519081900360640190fd5b3360006106d8846104f9565b905082600160a060020a031682600160a060020a031614806106ff57506106ff8383610e6a565b8061071b575081600160a060020a031681600160a060020a0316145b1515610771576040805160e560020a62461bcd02815260206004820152601660248201527f4552433732315f494e56414c49445f5350454e44455200000000000000000000604482015290519081900360640190fd5b600160a060020a038116156107aa576000848152600260205260409020805473ffffffffffffffffffffffffffffffffffffffff191690555b6000848152600160208181526040808420805473ffffffffffffffffffffffffffffffffffffffff1916600160a060020a038b8116919091179091558a1684526003909152909120546107fc91610e98565b600160a060020a03808816600090815260036020526040808220939093559087168152205461082c906001610ef8565b600160a060020a03808716600081815260036020526040808220949094559251879391928a16917fddf252ad1be2c89b69c2b068fc378daa952ba7f163c4a11628f55a4df523b3ef91a4505050505050565b6108898383836105fc565b813b6000811115610a1557604080517f150b7a02000000000000000000000000000000000000000000000000000000008152336004820152600160a060020a038681166024830152604482018590526080606483015260006084830181905292519086169163150b7a029160c480830192602092919082900301818787803b15801561091457600080fd5b505af1158015610928573d6000803e3d6000fd5b505050506040513d602081101561093e57600080fd5b5051604080517f6f6e455243373231526563656976656428616464726573732c6164647265737381527f2c75696e743235362c62797465732900000000000000000000000000000000006020820152905190819003602f0190209091507bffffffffffffffffffffffffffffffffffffffffffffffffffffffff19808316911614610a13576040805160e560020a62461bcd02815260206004820152601760248201527f4552433732315f494e56414c49445f53454c4543544f52000000000000000000604482015290519081900360640190fd5b505b50505050565b600081815260016020526040812054600160a060020a0316801515610a8a576040805160e560020a62461bcd02815260206004820152601160248201527f4552433732315f5a45524f5f4f574e4552000000000000000000000000000000604482015290519081900360640190fd5b92915050565b60008181526020818152604091829020600180820180548551600293821615610100026000190190911692909204601f8101859004850283018501909552848252606094929391929091830182828015610b2b5780601f10610b0057610100808354040283529160200191610b2b565b820191906000526020600020905b815481529060010190602001808311610b0e57829003601f168201915b5050505050915050919050565b6000600160a060020a0382161515610b9a576040805160e560020a62461bcd02815260206004820152601160248201527f4552433732315f5a45524f5f4f574e4552000000000000000000000000000000604482015290519081900360640190fd5b50600160a060020a031660009081526003602052604090205490565b60408051808201909152600681527f31324b5555440000000000000000000000000000000000000000000000000000602082015290565b336000818152600460209081526040808320600160a060020a03871680855290835292819020805460ff1916861515908117909155815190815290519293927f17307eab39ab6107e8899845ad3d59bd9653f200f220920489ca2b5937696c31929181900390910190a35050565b610c668585856105fc565b833b6000811115610e21576040517f150b7a020000000000000000000000000000000000000000000000000000000081523360048201818152600160a060020a0389811660248501526044840188905260806064850190815260848501879052600094918a169363150b7a029390928c928b928b928b929060a401848480828437600081840152601f19601f8201169050808301925050509650505050505050602060405180830381600087803b158015610d2057600080fd5b505af1158015610d34573d6000803e3d6000fd5b505050506040513d6020811015610d4a57600080fd5b5051604080517f6f6e455243373231526563656976656428616464726573732c6164647265737381527f2c75696e743235362c62797465732900000000000000000000000000000000006020820152905190819003602f0190209091507bffffffffffffffffffffffffffffffffffffffffffffffffffffffff19808316911614610e1f576040805160e560020a62461bcd02815260206004820152601760248201527f4552433732315f494e56414c49445f53454c4543544f52000000000000000000604482015290519081900360640190fd5b505b505050505050565b610a15848484848080601f016020809104026020016040519081016040528093929190818152602001838380828437600092019190915250610f5c92505050565b600160a060020a03918216600090815260046020908152604080832093909416825291909152205460ff1690565b600082821115610ef2576040805160e560020a62461bcd02815260206004820152601160248201527f55494e543235365f554e444552464c4f57000000000000000000000000000000604482015290519081900360640190fd5b50900390565b600082820183811015610f55576040805160e560020a62461bcd02815260206004820152601060248201527f55494e543235365f4f564552464c4f5700000000000000000000000000000000604482015290519081900360640190fd5b9392505050565b600160a060020a0383161515610fbc576040805160e560020a62461bcd02815260206004820152601660248201527f4552433732315f5a45524f5f544f5f4144445245535300000000000000000000604482015290519081900360640190fd5b600082815260016020526040902054600160a060020a031615611029576040805160e560020a62461bcd02815260206004820152601b60248201527f4552433732315f4f574e45525f414c52454144595f4558495354530000000000604482015290519081900360640190fd5b6000828152600160208181526040808420805473ffffffffffffffffffffffffffffffffffffffff1916600160a060020a038916908117909155845260039091529091205461107791610ef8565b600160a060020a03841660009081526003602090815260408083209390935584825281815291902080543373ffffffffffffffffffffffffffffffffffffffff19909116177fffffffff0000000000000000ffffffffffffffffffffffffffffffffffffffff16740100000000000000000000000000000000000000004267ffffffffffffffff160217815582519091611118916001840191850190611157565b506040518390600160a060020a038616906000907fddf252ad1be2c89b69c2b068fc378daa952ba7f163c4a11628f55a4df523b3ef908290a450505050565b828054600181600116156101000203166002900490600052602060002090601f016020900481019282601f1061119857805160ff19168380011785556111c5565b828001600101855582156111c5579182015b828111156111c55782518255916020019190600101906111aa565b506111d19291506111d5565b5090565b6104f691905b808211156111d157600081556001016111db56fea165627a7a72305820e24495dc5f5eaa9e54a72d082327aea82e6f33da18b9c757ef2b973f7cfe03fc0029",
  "source": "pragma solidity ^0.5.0;\n\nimport { IERC721Token } from './IERC721Token.sol';\nimport { IERC721Receiver } from \"./IERC721Receiver.sol\";\nimport { SafeMath } from \"./SafeMath.sol\";\n\ncontract CarLoan is IERC721Token, SafeMath {\n  // Function selector for ERC721Receiver.onERC721Received\n  // 0x150b7a02\n  bytes4 constant internal ERC721_RECEIVED = bytes4(keccak256(\"onERC721Received(address,address,uint256,bytes)\"));\n\n  struct Token {\n    address mintedBy;\n    uint64 mintedAt;\n    string infoUrl;\n  }\n\n  mapping (uint256 => Token) tokens;\n\n  constructor() public {\n  }\n\n  // Mapping of tokenId => owner\n  mapping (uint256 => address) internal owners;\n\n  // Mapping of tokenId => approved address\n  mapping (uint256 => address) internal approvals;\n\n  // Mapping of owner => number of tokens owned\n  mapping (address => uint256) internal balances;\n\n  // Mapping of owner => operator => approved\n  mapping (address => mapping (address => bool)) internal operatorApprovals;\n\n  /// @notice Transfers the ownership of an NFT from one address to another address\n  /// @dev Throws unless `msg.sender` is the current owner, an authorized\n  ///      operator, or the approved address for this NFT. Throws if `_from` is\n  ///      not the current owner. Throws if `_to` is the zero address. Throws if\n  ///      `_tokenId` is not a valid NFT. When transfer is complete, this function\n  ///      checks if `_to` is a smart contract (code size > 0). If so, it calls\n  ///      `onERC721Received` on `_to` and throws if the return value is not\n  ///      `bytes4(keccak256(\"onERC721Received(address,address,uint256,bytes)\"))`.\n  /// @param _from The current owner of the NFT\n  /// @param _to The new owner\n  /// @param _tokenId The NFT to transfer\n  /// @param _data Additional data with no specified format, sent in call to `_to`\n  function safeTransferFrom(\n      address _from,\n      address _to,\n      uint256 _tokenId,\n      bytes calldata _data\n  )\n      external\n  {\n      transferFrom(\n          _from,\n          _to,\n          _tokenId\n      );\n\n      uint256 receiverCodeSize;\n      assembly {\n          receiverCodeSize := extcodesize(_to)\n      }\n      if (receiverCodeSize > 0) {\n          bytes4 selector = IERC721Receiver(_to).onERC721Received(\n              msg.sender,\n              _from,\n              _tokenId,\n              _data\n          );\n          require(\n              selector == ERC721_RECEIVED,\n              \"ERC721_INVALID_SELECTOR\"\n          );\n      }\n  }\n\n  /// @notice Transfers the ownership of an NFT from one address to another address\n  /// @dev This works identically to the other function with an extra data parameter,\n  ///      except this function just sets data to \"\".\n  /// @param _from The current owner of the NFT\n  /// @param _to The new owner\n  /// @param _tokenId The NFT to transfer\n  function safeTransferFrom(\n      address _from,\n      address _to,\n      uint256 _tokenId\n  )\n      external\n  {\n      transferFrom(\n          _from,\n          _to,\n          _tokenId\n      );\n\n      uint256 receiverCodeSize;\n      assembly {\n          receiverCodeSize := extcodesize(_to)\n      }\n      if (receiverCodeSize > 0) {\n          bytes4 selector = IERC721Receiver(_to).onERC721Received(\n              msg.sender,\n              _from,\n              _tokenId,\n              \"\"\n          );\n          require(\n              selector == ERC721_RECEIVED,\n              \"ERC721_INVALID_SELECTOR\"\n          );\n      }\n  }\n\n  /// @notice Change or reaffirm the approved address for an NFT\n  /// @dev The zero address indicates there is no approved address.\n  ///      Throws unless `msg.sender` is the current NFT owner, or an authorized\n  ///      operator of the current owner.\n  /// @param _approved The new approved NFT controller\n  /// @param _tokenId The NFT to approve\n  function approve(address _approved, uint256 _tokenId)\n      external\n  {\n      address owner = ownerOf(_tokenId);\n      require(\n          msg.sender == owner || isApprovedForAll(owner, msg.sender),\n          \"ERC721_INVALID_SENDER\"\n      );\n\n      approvals[_tokenId] = _approved;\n      emit Approval(\n          owner,\n          _approved,\n          _tokenId\n      );\n  }\n\n  /// @notice Enable or disable approval for a third party (\"operator\") to manage\n  ///         all of `msg.sender`'s assets\n  /// @dev Emits the ApprovalForAll event. The contract MUST allow\n  ///      multiple operators per owner.\n  /// @param _operator Address to add to the set of authorized operators\n  /// @param _approved True if the operator is approved, false to revoke approval\n  function setApprovalForAll(address _operator, bool _approved)\n      external\n  {\n      operatorApprovals[msg.sender][_operator] = _approved;\n      emit ApprovalForAll(\n          msg.sender,\n          _operator,\n          _approved\n      );\n  }\n\n  /// @notice Count all NFTs assigned to an owner\n  /// @dev NFTs assigned to the zero address are considered invalid, and this\n  ///      function throws for queries about the zero address.\n  /// @param _owner An address for whom to query the balance\n  /// @return The number of NFTs owned by `_owner`, possibly zero\n  function balanceOf(address _owner)\n      external\n      view\n      returns (uint256)\n  {\n      require(\n          _owner != address(0),\n          \"ERC721_ZERO_OWNER\"\n      );\n      return balances[_owner];\n  }\n\n  /// @notice Transfer ownership of an NFT -- THE CALLER IS RESPONSIBLE\n  ///         TO CONFIRM THAT `_to` IS CAPABLE OF RECEIVING NFTS OR ELSE\n  ///         THEY MAY BE PERMANENTLY LOST\n  /// @dev Throws unless `msg.sender` is the current owner, an authorized\n  ///      operator, or the approved address for this NFT. Throws if `_from` is\n  ///      not the current owner. Throws if `_to` is the zero address. Throws if\n  ///      `_tokenId` is not a valid NFT.\n  /// @param _from The current owner of the NFT\n  /// @param _to The new owner\n  /// @param _tokenId The NFT to transfer\n  function transferFrom(\n      address _from,\n      address _to,\n      uint256 _tokenId\n  )\n      public\n  {\n      require(\n          _to != address(0),\n          \"ERC721_ZERO_TO_ADDRESS\"\n      );\n\n      address owner = ownerOf(_tokenId);\n      require(\n          _from == owner,\n          \"ERC721_OWNER_MISMATCH\"\n      );\n\n      address spender = msg.sender;\n      address approvedAddress = getApproved(_tokenId);\n      require(\n          spender == owner ||\n          isApprovedForAll(owner, spender) ||\n          approvedAddress == spender,\n          \"ERC721_INVALID_SPENDER\"\n      );\n\n      if (approvedAddress != address(0)) {\n          approvals[_tokenId] = address(0);\n      }\n\n      owners[_tokenId] = _to;\n      balances[_from] = safeSub(balances[_from], 1);\n      balances[_to] = safeAdd(balances[_to], 1);\n\n      emit Transfer(\n          _from,\n          _to,\n          _tokenId\n      );\n  }\n\n  /// @notice Find the owner of an NFT\n  /// @dev NFTs assigned to zero address are considered invalid, and queries\n  ///      about them do throw.\n  /// @param _tokenId The identifier for an NFT\n  /// @return The address of the owner of the NFT\n  function ownerOf(uint256 _tokenId)\n      public\n      view\n      returns (address)\n  {\n      address owner = owners[_tokenId];\n      require(\n          owner != address(0),\n          \"ERC721_ZERO_OWNER\"\n      );\n      return owner;\n  }\n\n  /// @notice Get the approved address for a single NFT\n  /// @dev Throws if `_tokenId` is not a valid NFT.\n  /// @param _tokenId The NFT to find the approved address for\n  /// @return The approved address for this NFT, or the zero address if there is none\n  function getApproved(uint256 _tokenId)\n      public\n      view\n      returns (address)\n  {\n      return approvals[_tokenId];\n  }\n\n  /// @notice Query if an address is an authorized operator for another address\n  /// @param _owner The address that owns the NFTs\n  /// @param _operator The address that acts on behalf of the owner\n  /// @return True if `_operator` is an approved operator for `_owner`, false otherwise\n  function isApprovedForAll(address _owner, address _operator)\n      public\n      view\n      returns (bool)\n  {\n      return operatorApprovals[_owner][_operator];\n  }\n\n  /*** Extra ***/\n  function name() public pure returns (string memory) { return \"12months(TM) Car Loan\"; }\n\n  function symbol() public pure returns (string memory) { return \"12KUUD\"; }\n\n  function mint(address _to, uint256 _tokenId, string calldata _infoUrl) external {\n      _mint(_to, _tokenId, _infoUrl);\n  }\n\n  function _mint(address _to, uint256 _tokenId, string memory _infoUrl) internal {\n      require(\n          _to != address(0),\n          \"ERC721_ZERO_TO_ADDRESS\"\n      );\n\n      require(\n          owners[_tokenId] == address(0),\n          \"ERC721_OWNER_ALREADY_EXISTS\"\n      );\n\n      owners[_tokenId] = _to;\n      balances[_to] = safeAdd(balances[_to], 1);\n\n      // create token\n      Token storage token = tokens[_tokenId];\n      token.mintedBy = msg.sender;\n      token.mintedAt = uint64(now);\n      token.infoUrl = _infoUrl;\n\n      emit Transfer(\n          address(0),\n          _to,\n          _tokenId\n      );\n  }\n\n  function tokenMetadata(uint256 _tokenId) public view returns (string memory infoUrl) {\n    Token storage token = tokens[_tokenId];\n    return token.infoUrl;\n  }\n}\n",
  "sourcePath": "/home/hellwolf/Projects/ethparis2019/12months/ethereum/contracts/CarLoan.sol",
  "compiler": {
    "name": "solc",
    "version": "0.5.0+commit.1d4f565a.Emscripten.clang"
  },
  "schemaVersion": "3.0.2",
  "updatedAt": "2019-03-10T04:16:04.291Z",
  "devdoc": {
    "methods": {
      "approve(address,uint256)": {
        "details": "The zero address indicates there is no approved address.      Throws unless `msg.sender` is the current NFT owner, or an authorized      operator of the current owner.",
        "params": {
          "_approved": "The new approved NFT controller",
          "_tokenId": "The NFT to approve"
        }
      },
      "balanceOf(address)": {
        "details": "NFTs assigned to the zero address are considered invalid, and this      function throws for queries about the zero address.",
        "params": {
          "_owner": "An address for whom to query the balance"
        },
        "return": "The number of NFTs owned by `_owner`, possibly zero"
      },
      "getApproved(uint256)": {
        "details": "Throws if `_tokenId` is not a valid NFT.",
        "params": {
          "_tokenId": "The NFT to find the approved address for"
        },
        "return": "The approved address for this NFT, or the zero address if there is none"
      },
      "isApprovedForAll(address,address)": {
        "params": {
          "_operator": "The address that acts on behalf of the owner",
          "_owner": "The address that owns the NFTs"
        },
        "return": "True if `_operator` is an approved operator for `_owner`, false otherwise"
      },
      "ownerOf(uint256)": {
        "details": "NFTs assigned to zero address are considered invalid, and queries      about them do throw.",
        "params": {
          "_tokenId": "The identifier for an NFT"
        },
        "return": "The address of the owner of the NFT"
      },
      "safeTransferFrom(address,address,uint256)": {
        "details": "This works identically to the other function with an extra data parameter,      except this function just sets data to \"\".",
        "params": {
          "_from": "The current owner of the NFT",
          "_to": "The new owner",
          "_tokenId": "The NFT to transfer"
        }
      },
      "safeTransferFrom(address,address,uint256,bytes)": {
        "details": "Throws unless `msg.sender` is the current owner, an authorized      operator, or the approved address for this NFT. Throws if `_from` is      not the current owner. Throws if `_to` is the zero address. Throws if      `_tokenId` is not a valid NFT. When transfer is complete, this function      checks if `_to` is a smart contract (code size > 0). If so, it calls      `onERC721Received` on `_to` and throws if the return value is not      `bytes4(keccak256(\"onERC721Received(address,address,uint256,bytes)\"))`.",
        "params": {
          "_data": "Additional data with no specified format, sent in call to `_to`",
          "_from": "The current owner of the NFT",
          "_to": "The new owner",
          "_tokenId": "The NFT to transfer"
        }
      },
      "setApprovalForAll(address,bool)": {
        "details": "Emits the ApprovalForAll event. The contract MUST allow      multiple operators per owner.",
        "params": {
          "_approved": "True if the operator is approved, false to revoke approval",
          "_operator": "Address to add to the set of authorized operators"
        }
      },
      "transferFrom(address,address,uint256)": {
        "details": "Throws unless `msg.sender` is the current owner, an authorized      operator, or the approved address for this NFT. Throws if `_from` is      not the current owner. Throws if `_to` is the zero address. Throws if      `_tokenId` is not a valid NFT.",
        "params": {
          "_from": "The current owner of the NFT",
          "_to": "The new owner",
          "_tokenId": "The NFT to transfer"
        }
      }
    }
  },
  "userdoc": {
    "methods": {
      "approve(address,uint256)": {
        "notice": "Change or reaffirm the approved address for an NFT"
      },
      "balanceOf(address)": {
        "notice": "Count all NFTs assigned to an owner"
      },
      "getApproved(uint256)": {
        "notice": "Get the approved address for a single NFT"
      },
      "isApprovedForAll(address,address)": {
        "notice": "Query if an address is an authorized operator for another address"
      },
      "name()": {
        "notice": "* Extra **"
      },
      "ownerOf(uint256)": {
        "notice": "Find the owner of an NFT"
      },
      "safeTransferFrom(address,address,uint256)": {
        "notice": "Transfers the ownership of an NFT from one address to another address"
      },
      "safeTransferFrom(address,address,uint256,bytes)": {
        "notice": "Transfers the ownership of an NFT from one address to another address"
      },
      "setApprovalForAll(address,bool)": {
        "notice": "Enable or disable approval for a third party (\"operator\") to manage         all of `msg.sender`'s assets"
      },
      "transferFrom(address,address,uint256)": {
        "notice": "Transfer ownership of an NFT -- THE CALLER IS RESPONSIBLE         TO CONFIRM THAT `_to` IS CAPABLE OF RECEIVING NFTS OR ELSE         THEY MAY BE PERMANENTLY LOST"
      }
    }
  }
}