{
  "contractName": "CarLoan",
  "abi": [
    {
      "constant": true,
      "inputs": [
        {
          "name": "",
          "type": "uint256"
        }
      ],
      "name": "tokenIndexToOwner",
      "outputs": [
        {
          "name": "",
          "type": "address"
        }
      ],
      "payable": false,
      "stateMutability": "view",
      "type": "function"
    },
    {
      "constant": true,
      "inputs": [
        {
          "name": "",
          "type": "uint256"
        }
      ],
      "name": "tokenIndexToApproved",
      "outputs": [
        {
          "name": "",
          "type": "address"
        }
      ],
      "payable": false,
      "stateMutability": "view",
      "type": "function"
    },
    {
      "anonymous": false,
      "inputs": [
        {
          "indexed": false,
          "name": "from",
          "type": "address"
        },
        {
          "indexed": false,
          "name": "to",
          "type": "address"
        },
        {
          "indexed": false,
          "name": "tokenId",
          "type": "uint256"
        }
      ],
      "name": "Transfer",
      "type": "event"
    },
    {
      "anonymous": false,
      "inputs": [
        {
          "indexed": false,
          "name": "owner",
          "type": "address"
        },
        {
          "indexed": false,
          "name": "approved",
          "type": "address"
        },
        {
          "indexed": false,
          "name": "tokenId",
          "type": "uint256"
        }
      ],
      "name": "Approval",
      "type": "event"
    },
    {
      "anonymous": false,
      "inputs": [
        {
          "indexed": true,
          "name": "owner",
          "type": "address"
        },
        {
          "indexed": false,
          "name": "tokenId",
          "type": "uint256"
        }
      ],
      "name": "Mint",
      "type": "event"
    },
    {
      "anonymous": false,
      "inputs": [
        {
          "indexed": true,
          "name": "_owner",
          "type": "address"
        },
        {
          "indexed": true,
          "name": "_operator",
          "type": "address"
        },
        {
          "indexed": false,
          "name": "_approved",
          "type": "bool"
        }
      ],
      "name": "ApprovalForAll",
      "type": "event"
    },
    {
      "constant": true,
      "inputs": [],
      "name": "totalSupply",
      "outputs": [
        {
          "name": "total",
          "type": "uint256"
        }
      ],
      "payable": false,
      "stateMutability": "view",
      "type": "function"
    },
    {
      "constant": true,
      "inputs": [
        {
          "name": "_owner",
          "type": "address"
        }
      ],
      "name": "balanceOf",
      "outputs": [
        {
          "name": "balance",
          "type": "uint256"
        }
      ],
      "payable": false,
      "stateMutability": "view",
      "type": "function"
    },
    {
      "constant": true,
      "inputs": [
        {
          "name": "_tokenId",
          "type": "uint256"
        }
      ],
      "name": "ownerOf",
      "outputs": [
        {
          "name": "owner",
          "type": "address"
        }
      ],
      "payable": false,
      "stateMutability": "view",
      "type": "function"
    },
    {
      "constant": false,
      "inputs": [
        {
          "name": "_to",
          "type": "address"
        },
        {
          "name": "_tokenId",
          "type": "uint256"
        }
      ],
      "name": "approve",
      "outputs": [],
      "payable": false,
      "stateMutability": "nonpayable",
      "type": "function"
    },
    {
      "constant": false,
      "inputs": [
        {
          "name": "_operator",
          "type": "address"
        },
        {
          "name": "_approved",
          "type": "bool"
        }
      ],
      "name": "setApprovalForAll",
      "outputs": [],
      "payable": false,
      "stateMutability": "nonpayable",
      "type": "function"
    },
    {
      "constant": true,
      "inputs": [
        {
          "name": "_owner",
          "type": "address"
        },
        {
          "name": "_operator",
          "type": "address"
        }
      ],
      "name": "isApprovedForAll",
      "outputs": [
        {
          "name": "",
          "type": "bool"
        }
      ],
      "payable": false,
      "stateMutability": "view",
      "type": "function"
    },
    {
      "constant": false,
      "inputs": [
        {
          "name": "_to",
          "type": "address"
        },
        {
          "name": "_tokenId",
          "type": "uint256"
        }
      ],
      "name": "transfer",
      "outputs": [],
      "payable": false,
      "stateMutability": "nonpayable",
      "type": "function"
    },
    {
      "constant": false,
      "inputs": [
        {
          "name": "_from",
          "type": "address"
        },
        {
          "name": "_to",
          "type": "address"
        },
        {
          "name": "_tokenId",
          "type": "uint256"
        }
      ],
      "name": "transferFrom",
      "outputs": [],
      "payable": false,
      "stateMutability": "nonpayable",
      "type": "function"
    },
    {
      "constant": true,
      "inputs": [],
      "name": "name",
      "outputs": [
        {
          "name": "",
          "type": "string"
        }
      ],
      "payable": false,
      "stateMutability": "view",
      "type": "function"
    },
    {
      "constant": true,
      "inputs": [],
      "name": "symbol",
      "outputs": [
        {
          "name": "",
          "type": "string"
        }
      ],
      "payable": false,
      "stateMutability": "view",
      "type": "function"
    },
    {
      "constant": true,
      "inputs": [
        {
          "name": "_owner",
          "type": "address"
        }
      ],
      "name": "tokensOfOwner",
      "outputs": [
        {
          "name": "tokenIds",
          "type": "uint256[]"
        }
      ],
      "payable": false,
      "stateMutability": "view",
      "type": "function"
    },
    {
      "constant": true,
      "inputs": [
        {
          "name": "_tokenId",
          "type": "uint256"
        }
      ],
      "name": "tokenMetadata",
      "outputs": [
        {
          "name": "infoUrl",
          "type": "string"
        }
      ],
      "payable": false,
      "stateMutability": "view",
      "type": "function"
    },
    {
      "constant": false,
      "inputs": [
        {
          "name": "_infoUrl",
          "type": "string"
        }
      ],
      "name": "mint",
      "outputs": [
        {
          "name": "",
          "type": "uint256"
        }
      ],
      "payable": false,
      "stateMutability": "nonpayable",
      "type": "function"
    }
  ],
  "bytecode": "0x608060405234801561001057600080fd5b50610cc3806100206000396000f3fe6080604052600436106100da5763ffffffff7c010000000000000000000000000000000000000000000000000000000060003504166306fdde0381146100df578063095ea7b31461016957806318160ddd146101a45780631d36e06c146101cb57806323b872dd146102115780636352211e146102545780636914db601461027e57806370a08231146102a85780638462151c146102db57806395d89b411461035e578063a22cb46514610373578063a8bd9c32146103ae578063a9059cbb146103d8578063d85d3d2714610411578063e985e9c51461048e575b600080fd5b3480156100eb57600080fd5b506100f46104dd565b6040805160208082528351818301528351919283929083019185019080838360005b8381101561012e578181015183820152602001610116565b50505050905090810190601f16801561015b5780820380516001836020036101000a031916815260200191505b509250505060405180910390f35b34801561017557600080fd5b506101a26004803603604081101561018c57600080fd5b50600160a060020a038135169060200135610515565b005b3480156101b057600080fd5b506101b9610538565b60408051918252519081900360200190f35b3480156101d757600080fd5b506101f5600480360360208110156101ee57600080fd5b503561053e565b60408051600160a060020a039092168252519081900360200190f35b34801561021d57600080fd5b506101a26004803603606081101561023457600080fd5b50600160a060020a03813581169160208101359091169060400135610559565b34801561026057600080fd5b506101f56004803603602081101561027757600080fd5b50356105be565b34801561028a57600080fd5b506100f4600480360360208110156102a157600080fd5b50356105e7565b3480156102b457600080fd5b506101b9600480360360208110156102cb57600080fd5b5035600160a060020a0316610687565b3480156102e757600080fd5b5061030e600480360360208110156102fe57600080fd5b5035600160a060020a03166106a2565b60408051602080825283518183015283519192839290830191858101910280838360005b8381101561034a578181015183820152602001610332565b505050509050019250505060405180910390f35b34801561036a57600080fd5b506100f461076c565b34801561037f57600080fd5b506101a26004803603604081101561039657600080fd5b50600160a060020a03813516906020013515156107a3565b3480156103ba57600080fd5b506101f5600480360360208110156103d157600080fd5b5035610811565b3480156103e457600080fd5b506101a2600480360360408110156103fb57600080fd5b50600160a060020a03813516906020013561082c565b34801561041d57600080fd5b506101b96004803603602081101561043457600080fd5b81019060208101813564010000000081111561044f57600080fd5b82018360208201111561046157600080fd5b8035906020019184600183028401116401000000008311171561048357600080fd5b509092509050610877565b34801561049a57600080fd5b506104c9600480360360408110156104b157600080fd5b50600160a060020a03813581169160200135166108c1565b604080519115158252519081900360200190f35b60408051808201909152601581527f31326d6f6e74687328544d2920436172204c6f616e000000000000000000000060208201525b90565b61051f33826108ef565b151561052a57600080fd5b610534828261090f565b5050565b60005490565b600260205260009081526040902054600160a060020a031681565b600160a060020a038216151561056e57600080fd5b600160a060020a03821630141561058457600080fd5b61058e338261099d565b151561059957600080fd5b6105a383826108ef565b15156105ae57600080fd5b6105b98383836109bd565b505050565b600081815260026020526040902054600160a060020a03168015156105e257600080fd5b919050565b60008181526001602081815260409283902080548451600294821615610100026000190190911693909304601f8101839004830284018301909452838352606093909183018282801561067b5780601f106106505761010080835404028352916020019161067b565b820191906000526020600020905b81548152906001019060200180831161065e57829003601f168201915b50505050509050919050565b600160a060020a031660009081526003602052604090205490565b606060006106af83610687565b90508015156106ce5750506040805160008152602081019091526105e2565b6060816040519080825280602002602001820160405280156106fa578160200160208202803883390190505b5090506000610707610538565b9050600060015b82811161075f57600081815260026020526040902054600160a060020a03888116911614156107575780848381518110151561074657fe5b602090810290910101526001909101905b60010161070e565b83955050505050506105e2565b60408051808201909152600681527f31324b5555440000000000000000000000000000000000000000000000000000602082015290565b336000818152600560209081526040808320600160a060020a03871680855290835292819020805460ff1916861515908117909155815190815290519293927f17307eab39ab6107e8899845ad3d59bd9653f200f220920489ca2b5937696c31929181900390910190a35050565b600460205260009081526040902054600160a060020a031681565b600160a060020a038216151561084157600080fd5b600160a060020a03821630141561085757600080fd5b61086133826108ef565b151561086c57600080fd5b6105343383836109bd565b60006108ba83838080601f016020809104026020016040519081016040528093929190818152602001838380828437600092019190915250339250610aa7915050565b9392505050565b600160a060020a03918216600090815260056020908152604080832093909416825291909152205460ff1690565b600090815260026020526040902054600160a060020a0391821691161490565b6000818152600460208181526040808420805473ffffffffffffffffffffffffffffffffffffffff1916600160a060020a038881169190911791829055600284529482902054938352815193851684529093169082015280820183905290517f8c5be1e5ebec7d5bd14f71427d1e84f3dd0314c0f7b2291e5b200ac8c7c3b925916060908290030190a15050565b600090815260046020526040902054600160a060020a0391821691161490565b600160a060020a0380831660008181526003602090815260408083208054600101905585835260029091529020805473ffffffffffffffffffffffffffffffffffffffff19169091179055831615610a5857600160a060020a0383166000908152600360209081526040808320805460001901905583835260049091529020805473ffffffffffffffffffffffffffffffffffffffff191690555b60408051600160a060020a0380861682528416602082015280820183905290517fddf252ad1be2c89b69c2b068fc378daa952ba7f163c4a11628f55a4df523b3ef9181900360600190a1505050565b6000610ab1610be8565b5050604080518082018252600160a060020a03808416825267ffffffffffffffff4281166020808501918252600080546001818101835582805287517f290decd9548b62a8d60345a988386fc84ba6bc95484008f6362f93160ef3e56383018054965190971674010000000000000000000000000000000000000000027fffffffff0000000000000000ffffffffffffffffffffffffffffffffffffffff9190981673ffffffffffffffffffffffffffffffffffffffff1990961695909517949094169590951790935583835290815293902085519193610b959290870190610bff565b50604080518381529051600160a060020a038516917f0f6798a560793a54c3bcfe86a93cde1e73087d944c0ea20544137d4121396885919081900360200190a2610be1600084846109bd565b5092915050565b604080518082019091526000808252602082015290565b828054600181600116156101000203166002900490600052602060002090601f016020900481019282601f10610c4057805160ff1916838001178555610c6d565b82800160010185558215610c6d579182015b82811115610c6d578251825591602001919060010190610c52565b50610c79929150610c7d565b5090565b61051291905b80821115610c795760008155600101610c8356fea165627a7a72305820060e47606faf458440ca32ccabbcc2feda6f89356a24ea49ea105b77ea0a5cbe0029",
  "source": "pragma solidity ^0.5.0;\n\nimport { ERC721 } from './ERC721.sol';\n\ncontract CarLoan is ERC721 {\n\n  struct Token {\n    address mintedBy;\n    uint64 mintedAt;\n  }\n\n  Token[] tokens;\n\n  mapping (uint256 => string) infoUrls;\n  mapping (uint256 => address) public tokenIndexToOwner;\n  mapping (address => uint256) ownershipTokenCount;\n  mapping (uint256 => address) public tokenIndexToApproved;\n  mapping (address => mapping (address => bool)) internal operatorApprovals;\n\n  // Required methods\n  function totalSupply() public view returns (uint256 total) {\n     return tokens.length;\n  }\n  function balanceOf(address _owner) public view returns (uint256 balance) {\n     return ownershipTokenCount[_owner];\n  }\n  function ownerOf(uint256 _tokenId) external view returns (address owner) {\n     owner = tokenIndexToOwner[_tokenId];\n\n     require(owner != address(0));\n  }\n  function approve(address _to, uint256 _tokenId) external {\n    require(_owns(msg.sender, _tokenId));\n\n    _approve(_to, _tokenId);\n  }\n  function setApprovalForAll(address _operator, bool _approved) external {\n    operatorApprovals[msg.sender][_operator] = _approved;\n    emit ApprovalForAll(\n        msg.sender,\n        _operator,\n        _approved\n    );\n  }\n  function isApprovedForAll(address _owner, address _operator)\n      public\n      view\n      returns (bool) {\n    return operatorApprovals[_owner][_operator];\n  }\n  function transfer(address _to, uint256 _tokenId) external {\n    require(_to != address(0));\n    require(_to != address(this));\n    require(_owns(msg.sender, _tokenId));\n\n    _transfer(msg.sender, _to, _tokenId);\n  }\n  function transferFrom(address _from, address _to, uint256 _tokenId) external {\n    require(_to != address(0));\n    require(_to != address(this));\n    require(_approvedFor(msg.sender, _tokenId));\n    require(_owns(_from, _tokenId));\n\n    _transfer(_from, _to, _tokenId);\n  }\n\n  // Events\n  event Transfer(address from, address to, uint256 tokenId);\n  event Approval(address owner, address approved, uint256 tokenId);\n\n  // Optional\n  function name() public view returns (string memory) { return \"12months(TM) Car Loan\"; }\n  function symbol() public view returns (string memory) { return \"12KUUD\"; }\n  function tokensOfOwner(address _owner) external view returns (uint256[] memory tokenIds) {\n    uint256 balance = balanceOf(_owner);\n\n    if (balance == 0) {\n      return new uint256[](0);\n    } else {\n      uint256[] memory result = new uint256[](balance);\n      uint256 maxTokenId = totalSupply();\n      uint256 idx = 0;\n\n      uint256 tokenId;\n      for (tokenId = 1; tokenId <= maxTokenId; tokenId++) {\n        if (tokenIndexToOwner[tokenId] == _owner) {\n          result[idx] = tokenId;\n          idx++;\n        }\n      }\n\n      return result;\n    }\n  }\n  function tokenMetadata(uint256 _tokenId) public view returns (string memory infoUrl) {\n    return infoUrls[_tokenId];\n  }\n\n  /*** OTHER EXTERNAL FUNCTIONS ***/\n\n  function mint(string calldata _infoUrl) external returns (uint256) {\n    return _mint(_infoUrl, msg.sender);\n  }\n\n  event Mint(address indexed owner, uint256 tokenId);\n\n  /*** INTERNAL FUNCTIONS ***/\n  function _owns(address _claimant, uint256 _tokenId) internal view returns (bool) {\n    return tokenIndexToOwner[_tokenId] == _claimant;\n  }\n\n  function _approvedFor(address _claimant, uint256 _tokenId) internal view returns (bool) {\n    return tokenIndexToApproved[_tokenId] == _claimant;\n  }\n\n  function _approve(address _to, uint256 _tokenId) internal {\n    tokenIndexToApproved[_tokenId] = _to;\n\n    emit Approval(tokenIndexToOwner[_tokenId], tokenIndexToApproved[_tokenId], _tokenId);\n  }\n\n  function _transfer(address _from, address _to, uint256 _tokenId) internal {\n    ownershipTokenCount[_to]++;\n    tokenIndexToOwner[_tokenId] = _to;\n\n    if (_from != address(0)) {\n      ownershipTokenCount[_from]--;\n      delete tokenIndexToApproved[_tokenId];\n    }\n\n    emit Transfer(_from, _to, _tokenId);\n  }\n\n  function _mint(string memory  _infoUrl, address _owner) internal returns (uint256 tokenId) {\n    Token memory token = Token({\n      mintedBy: _owner,\n      mintedAt: uint64(now)\n    });\n    tokenId = tokens.push(token) - 1;\n    infoUrls[tokenId] = _infoUrl;\n\n    emit Mint(_owner, tokenId);\n\n    _transfer(address(0), _owner, tokenId);\n  }\n}\n",
  "sourcePath": "/srv/work/projects/jaanek/12months/ethereum/contracts/CarLoan.sol",
  "compiler": {
    "name": "solc",
    "version": "0.5.0+commit.1d4f565a.Emscripten.clang"
  },
  "schemaVersion": "3.0.2",
  "updatedAt": "2019-03-09T20:49:43.884Z",
  "devdoc": {
    "methods": {}
  },
  "userdoc": {
    "methods": {
      "mint(string)": {
        "notice": "* OTHER EXTERNAL FUNCTIONS **"
      }
    }
  }
}